:020000040800F2
:1000000000500020292E0008E9290008EB290008EB
:10001000ED290008EF290008F12900080000000080
:10002000000000000000000000000000F3290008AC
:10003000F529000800000000F7290008F929000848
:10004000712E0008712E0008712E0008712E000814
:10005000712E0008712E0008712E0008712E000804
:10006000712E0008712E0008712E0008712E0008F4
:10007000712E0008712E0008712E0008712E0008E4
:10008000712E0008712E0008712E0008712E0008D4
:10009000052A0008712E0008712E0008712E000834
:1000A000712E0008712E0008712E0008712E0008B4
:1000B000712E0008712E0008712E0008712E0008A4
:1000C000712E0008712E0008712E0008712E000894
:1000D000712E0008712E0008712E0008712E000884
:1000E000712E0008712E0008712E0008000000001B
:1000F0000000000000000000000000000000000000
:0C01000000000000000000005FF808F1A3
:10010C0010B5054C237833B9044B13B10448AFF345
:10011C0000800123237010BD60010020000000004E
:10012C00BC2E000808B5034B1BB103490348AFF3C1
:10013C00008008BD0000000064010020BC2E0008F7
:10014C0010B504460E4B18784FF47A73B3FBF0F3EA
:10015C000C4A1068B0FBF3F000F08CF868B90F2C67
:10016C0001D901200AE0002221464FF0FF3000F0B7
:10017C0041F8034B5C60002000E0012010BD00BF83
:10018C00000000201801002008B5074A136843F04E
:10019C0010031360032000F01BF80020FFF7D0FFC2
:1001AC0002F0CCFB002008BD00200240034A11687D
:1001BC00034B1B780B441360704700BFA003002057
:1001CC0000000020014B1868704700BFA0030020FE
:1001DC00074AD36823F4E0631B041B0C000200F4F1
:1001EC00E060184340F0BF6040F40030D0607047CE
:1001FC0000ED00E030B4174BDB68C3F30223C3F10E
:10020C000704042C28BF04241D1D062D18D9033BFC
:10021C004FF0FF3505FA04F421EA0401994005FA80
:10022C0003F322EA0303194300280BDB0901C9B2CB
:10023C0000F1604000F5614080F8001330BC70475D
:10024C000023E5E700F00F000901C9B2024B195475
:10025C00F4E700BF00ED00E014ED00E000F01F0239
:10026C00400901239340024A42F82030704700BFF6
:10027C0000E100E00138B0F1807F0AD2064B5860F3
:10028C00064AF02182F823100020986007221A6099
:10029C0070470120704700BF10E000E000ED00E067
:1002AC00042805D0054A136823F004031360704733
:1002BC00024A136843F004031360704710E000E037
:1002CC00704708B5FFF7FCFF08BD0000F0B482B022
:1002DC0000263546A1E0002C59D0012C00D1CE6867
:1002EC00FF2B68D88446FF2B68D8AC00DCF80020C4
:1002FC000F27A74022EA070206FA04F42243CCF89F
:10030C0000204A6812F0805F00F086805E4A946993
:10031C0044F001049461926902F001020192019A85
:10032C00AC08A71C594A52F8272005F00307BF0058
:10033C004FF00F0C0CFA07FC22EA0C0C544A9042BA
:10034C0042D002F5806290427FD002F580629042EA
:10035C007DD002F58062904234D0042235E04D4FBE
:10036C00BC4214D00BD94C4FBC4210D007F580378F
:10037C00BC420CD0A7F58017BC42B1D107E0A7F561
:10038C008017BC4203D007F58037BC42A8D18C68DB
:10039C007CB1012C08D042610826A1E7CE68083652
:1003AC009EE7CE680C369BE70261082698E700268C
:1003BC0096E7042694E700F1040C94E7A5F10804F1
:1003CC00A40093E7032200E00022BA4042EA0C02A8
:1003DC0002342E4F47F824204A6812F4803F38D05C
:1003EC002E4C22681A4322604A6812F4003F36D021
:1003FC002A4C62681A4362604A6812F4801F34D037
:10040C00264CA2681A43A2604A6812F4001F32D02C
:10041C00224CE2681343E36001350F2D31D80122E1
:10042C00AA400B6813409A42F6D14C68122CB8D0F3
:10043C0095D8022CB2D07FF64EAF032CB7D0112C2E
:10044C007FF44EAFCE6804364AE70122BDE70222A4
:10045C00BBE7124C226822EA03022260C4E70F4C6D
:10046C00626822EA03026260C6E70C4CA26822EAC8
:10047C000302A260C8E7094CE26822EA0303E360C6
:10048C00CAE702B0F0BC7047001002400000014007
:10049C000008014000002110000031100004014050
:1004AC0012B909040161704701617047002866D0D8
:1004BC00F0B587B0044690F82934C3B1032384F80F
:1004CC002934206800F0F3FF254655F8107B6E4662
:1004DC000FCD0FC62B683360231D0ECB384600F0B2
:1004EC00D7FF0021206800F0ECFF002315E080F816
:1004FC00283402F0F1FAE1E704EB4312012182F80F
:10050C00291082F828309386002182F82B109163F1
:10051C00D1639A1C5201A15001330E2BECD900234C
:10052C0012E004EB4312002182F8291282F82832DF
:10053C00938682F82B12C2F83812C2F83C1203F1DF
:10054C0012025201A15001330E2BEAD9254655F85F
:10055C00107B6E460FCD0FC62B683360231D0ECB60
:10056C00384600F0B0FF002584F82450012384F8AD
:10057C002934206801F0BBFA284607B0F0BD0120F1
:10058C00704790F82834012B10D010B50446012187
:10059C0080F8281402F0DFFB206801F0A6FA20682E
:1005AC0000F07DFF002084F8280410BD0220704765
:1005BC0090F82834012B0DD010B50446012380F897
:1005CC00283480F82410006801F089FA002084F89F
:1005DC00280410BD0220704738B54DB2002D1CDB2D
:1005EC0001F07F04640104F50A74044401F07F01F6
:1005FC002170ED0F65702261E37090F82834012BA7
:10060C0011D00546012380F828342146006800F0FB
:10061C0070FF002085F8280438BD01F07F046401C8
:10062C0028340444E2E70220F6E74AB2002A1BDB36
:10063C0001F07F035B0103F50A73034401F07F01B2
:10064C001970D20F5A7090F82824012A12D010B5C4
:10065C000446012280F828241946006801F0DDF8D0
:10066C00002084F8280410BD01F07F035B012833BF
:10067C000344E3E70220704770B501F07F056C017D
:10068C0004F50A7101440444C4F83C2205F1120239
:10069C005201861883500023736084F8293284F841
:1006AC00285225B1006801F03EFA002070BD0068A8
:1006BC0001F039FAF9E701F00F01123100EB4111A9
:1006CC008888704770B501F07F056C0104F1280132
:1006DC0001440444E263AA1C52018618835000238F
:1006EC007360012384F8293084F8285025B1006800
:1006FC0001F019FA002070BD006801F014FAF9E756
:10070C0070B582B004460023ADF80630ADF8043065
:10071C002068B0F844309BB2ADF8063013F4004FAB
:10072C0000F00D82BDF8065015F00F0540F0C280A8
:10073C00BDF8063013F0100F50D003889BB2ADF803
:10074C000430BDF8043013F4006F79D1BDF80430D7
:10075C0013F4004FDCD0038823F070031B051B0D32
:10076C0003802068B0F8503094F8282203EBC203C1
:10077C00063300EB4303D3F80034C3F30903C4F886
:10078C004432002B7CD10021204602F0CDF92368A5
:10079C00B3F85020063203EB4203D4F838123E294A
:1007AC007CD9C1F34F1211F01F0F01D1013A92B253
:1007BC006FEAC2626FEA524292B2C3F80024226816
:1007CC0013889BB223F4804323F0700383F44053CB
:1007DC0043F4004343F08003138099E703889BB2F2
:1007EC0023F4E14323F070039BB203802268B2F838
:1007FC00503094F8281003EBC103023302EB43038F
:10080C00D3F80034C3F309036364E26B1344E3636A
:10081C000021204602F092F994F82430002B3FF48A
:10082C0077AF236C002B7FF473AF94F824302268DD
:10083C0043F08003A2F84C30002384F8243067E79F
:10084C00B0F8503094F8282203EBC203063300EBC7
:10085C004303D3F80034C3F30903C4F84432B4F8A7
:10086C002C2204F22C4101F0BBFA2268138823F0ED
:10087C0070031B051B0D1380204602F04DF947E752
:10088C00B4F82C22D4F83C1201F0AAFAD4F8442281
:10089C00D4F83C321344C4F83C3274E7C1F34F0231
:1008AC0011F0010F01D0013292B2920292B2C3F850
:1008BC00002484E730F825309BB2ADF80430BDF845
:1008CC00043013F4004F35D1BDF8043013F0800F11
:1008DC003FF41EAF226832F825309BB223F4E1437B
:1008EC0023F070039BB222F8253004EB451393F8E8
:1008FC003230002B40F0B2802068B0F8503004EB5E
:10090C00451292F8282003EBC203023300EB430399
:10091C00D3F80034C3F30903AA1C04EB421253604E
:10092C00002B00F0C68004EB45118A8DC96B01F0D9
:10093C00E5F8BEE030F8253023F070031B051B0DE5
:10094C0020F8253004EB451393F83232D3B92068E4
:10095C00B0F8503004EB451292F8282203EBC20396
:10096C00063300EB4303B3F80064C6F3090686B301
:10097C0004EB45113346B1F82C22D1F83C1201F0AE
:10098C002FFA26E0206804EB451393F8282230F860
:10099C00223013F4804F42D0B0F8503003EBC20336
:1009AC00023300EB4303B3F80064C6F3090666BBDD
:1009BC00226804EB451393F8281232F8213023F007
:1009CC00F0031B051B0D43F4004343F0C00322F856
:1009DC00213005F112035B01E1184A6832444A6088
:1009EC0004EB4511D1F83C223244C1F83C22E358C7
:1009FC001BB1D1F838128E4228D204EB451393F870
:100A0C002812204602F090F85EE704EB45113346BD
:100A1C00B1F82E22D1F83C1201F0E2F9C8E7B0F897
:100A2C00503003EBC203063300EB4303B3F800640E
:100A3C00C6F30906002EBBD004EB45113346B1F8C2
:100A4C003022D1F83C1201F0CBF9B1E704EB45119F
:100A5C0091F828122046FFF70FFE35E7206804EBCB
:100A6C00451393F8282030F8223013F0400F46D06D
:100A7C00B0F8503003EBC203023300EB4303D3F85E
:100A8C000034C3F30903AA1C04EB421253607BBB72
:100A9C00226804EB451393F8281032F8213023F028
:100AAC00F0031B051B0D43F4404343F0800322F875
:100ABC0021302268B2F8503004EB451090F8281021
:100ACC0003EBC103023302EB4303D3F80024C2F35C
:100ADC000902AB1C5B01E1184A60C16B0A44C2639A
:100AEC00E35823BB90F82810204602F027F80FE6B5
:100AFC0004EB4511CA8DC96B01F000F8C8E7B0F8DA
:100B0C00503003EBC203063300EB4303D3F800343D
:100B1C00C3F30903AA1C04EB42125360002BB7D099
:100B2C0004EB45110A8EC96B00F0E8FFB0E704EB4B
:100B3C00451595F828102046FFF7C4FDE8E5002080
:100B4C0002B070BD10B50446006800F0D2FF10F47E
:100B5C00004F45D1206800F0CCFF10F4806F43D1DA
:100B6C00206800F0C6FF10F4804F08D02268B2F85D
:100B7C0044309BB223F480439BB2A2F844302068EB
:100B8C0000F0B7FF10F4005F08D02268B2F84430D0
:100B9C009BB223F400539BB2A2F84430206800F0BF
:100BAC00A8FF10F4805F30D1206800F0A2FF10F491
:100BBC00006F49D1206800F09CFF10F4007F64D1D5
:100BCC00206800F096FF10F4807F08D02268B2F8FD
:100BDC0044309BB223F480739BB2A2F8443010BD16
:100BEC002046FFF78DFDB5E72268B2F844309BB282
:100BFC0023F480639BB2A2F84430204601F0ADFF91
:100C0C0000212046FFF7D4FCAAE72268B2F8403056
:100C1C009BB223F004039BB2A2F840302268B2F8D6
:100C2C0040309BB223F008039BB2A2F84030204620
:100C3C0001F0B0FF2268B2F844309BB223F4805329
:100C4C009BB2A2F84430AFE72268B2F8403043F0D0
:100C5C000803A2F840302268B2F844309BB223F467
:100C6C0000639BB2A2F844302268B2F8403043F0E3
:100C7C000403A2F84030206800F03BFF10F4805FC2
:100C8C0098D1204601F076FF94E72268B2F8443000
:100C9C009BB223F400739BB2A2F84430204601F0BF
:100CAC0056FF8DE738B54AB2002A1BDB4B0103F522
:100CBC000A73034401249C7001F07F051D70D20F50
:100CCC005A7090F82824A24218D00446012280F8C9
:100CDC0028241946006800F082FE4DB1002084F8EB
:100CEC00280438BD01F07F035B0128330344E1E79E
:100CFC0004F22C41206800F0FFFEEFE70220F0E741
:100D0C0010B54AB2002A1ADB4B0103F50A730344EF
:100D1C0000249C7001F07F011970D20F5A7090F86A
:100D2C002824012A11D00446012280F828241946CF
:100D3C00006800F08BFE002084F8280410BD01F040
:100D4C007F035B0128330344E2E70220F6E711F04E
:100D5C00800F0CD001F07F014901283101445AB1B8
:100D6C0001228A72CB801B0C0B8100207047490139
:100D7C0001F50A710144F2E78A728B80F5E70000F5
:100D8C0082B0084B1B68084AA2FB03235B0A00FBDA
:100D9C0003F0019000BF019B5A1E0192002BF9D168
:100DAC0002B0704718010020D34D621070B582B0AC
:100DBC000446036813F0010F2CD0AB4B5B6803F0B7
:100DCC000C03042B1DD0A84B5B6803F00C03082B01
:100DDC0012D06368B3F5803F41D0002B55D103F19D
:100DEC00804303F504331A6822F480321A601A68BF
:100DFC0022F480221A6037E09B4B5B6813F4803F2F
:100E0C00E7D0994B1B6813F4003F03D06368002BA9
:100E1C0000F0AE81236813F0020F76D0924B5B6822
:100E2C0013F00C0F5FD0904B5B6803F00C03082B96
:100E3C0054D02369002B00F08A808C4B01221A605D
:100E4C00FFF7C0F90546884B1B6813F0020F75D1EC
:100E5C00FFF7B8F9401B0228F5D903208BE1824A31
:100E6C00136843F480331360636843B3FFF7AAF944
:100E7C0005467D4B1B6813F4003FCBD1FFF7A2F95D
:100E8C00401B6428F5D9032075E1B3F5A02F09D0D8
:100E9C00754B1A6822F480321A601A6822F4802288
:100EAC001A60E1E703F18043A3F53C331A6842F47E
:100EBC0080221A601A6842F480321A60D4E7FFF775
:100ECC0081F90546684B1B6813F4003FA2D0FFF76D
:100EDC0079F9401B6428F5D903204CE1624B5B681F
:100EEC0013F4803FA5D1604B1B6813F0020F04D0A4
:100EFC002369012B01D001203DE15B4A136823F0EB
:100F0C00F803616943EAC1031360236813F0080F07
:100F1C0032D0A369002B5BD0554B01221A60FFF72E
:100F2C0051F90546504B5B6A13F0020F21D1FFF7C4
:100F3C0049F9401B0228F5D903201CE14A4A1368E1
:100F4C0023F0F803616943EAC1031360DDE7474B03
:100F5C0000221A60FFF736F90546434B1B6813F065
:100F6C00020FD2D0FFF72EF9401B0228F5D903202F
:100F7C0001E10120FFF704FF236813F0040F00F0D8
:100F8C009780394BDB6913F0805F33D1364BDA69CC
:100F9C0042F08052DA61DB6903F080530193019BCC
:100FAC000125344B1B6813F4807F25D0E368012B9B
:100FBC0036D0002B4CD103F1804303F504331A6A6D
:100FCC0022F001021A621A6A22F004021A622CE060
:100FDC00274B00221A60FFF7F5F80546224B5B6A97
:100FEC0013F0020FC8D0FFF7EDF8401B0228F5D91B
:100FFC000320C0E00025D4E71E4A136843F4807335
:10100C001360FFF7DFF806461A4B1B6813F4807F5A
:10101C00CCD1FFF7D7F8801B6428F5D90320AAE0C0
:10102C00114A136A43F001031362E36873B3FFF7C9
:10103C00C9F806460C4B1B6A13F0020F37D1FFF7A9
:10104C00C1F8801B41F288339842F3D9032092E017
:10105C00052B11D0044B1A6A22F001021A621A6A8B
:10106C0022F004021A62E0E7001002400000424243
:10107C008004424200700040414B1A6A42F0040264
:10108C001A621A6A42F001021A62CEE7FFF79AF866
:10109C0006463B4B1B6A13F0020F08D0FFF792F881
:1010AC00801B41F288339842F3D9032063E0E5B901
:1010BC00E369002B5ED0324A526802F00C02082A17
:1010CC005BD0022B17D02F4B00221A60FFF77AF857
:1010DC0004462B4B1B6813F0007F47D0FFF772F8C8
:1010EC00001B0228F5D9032045E0254AD36923F0DB
:1010FC008053D361DCE7234B00221A60FFF762F8C0
:10110C0005461F4B1B6813F0007F06D0FFF75AF8FB
:10111C00401B0228F5D903202DE0236AB3F5803F4C
:10112C001AD017494B6823F47413226A606A02437D
:10113C0013434B60134B01221A60FFF743F804462C
:10114C000F4B1B6813F0007F0ED1FFF73BF8001B11
:10115C000228F5D903200EE0094A536823F4003322
:10116C00A1680B435360DCE7002004E0002002E0A0
:10117C00012000E0002002B070BD0120FBE700BFA1
:10118C00001002406000424210B487B0164C94E844
:10119C000F000DF1180C0CE90F00238AADF8043088
:1011AC00124B5B6803F00C02082A1AD1C3F383427A
:1011BC00624412F8102C13F4803F05D10C4800FB4C
:1011CC0002F007B010BC7047084B5B68C3F3404398
:1011DC00634413F8143C074800FB02F0B0FBF3F037
:1011EC00EFE70448EDE700BFD42E000800100240E2
:1011FC0000093D0000127A00594B1B6803F00703ED
:10120C008B420CD2564A136823F007030B4313602E
:10121C00136803F007038B4201D00120704770B5AF
:10122C00036813F0020F06D04E4A536823F0F00304
:10123C008468234353600C460546036813F0010F82
:10124C0052D04368012B23D0022B28D0454A126878
:10125C0012F0020F00F0828042494A6822F0030229
:10126C0013434B60FEF7AEFF06466B68012B1DD097
:10127C00022B2AD03B4B5B6813F00C0F34D0FEF7DB
:10128C00A1FF801B41F288339842F3D9032064E01C
:10129C00344A126812F4003FDED101205DE0314A7D
:1012AC00126812F0007FD7D1012056E02D4B5B68FD
:1012BC0003F00C03042B17D0FEF784FF801B41F2C4
:1012CC0088339842F2D9032047E0264B5B6803F041
:1012DC000C03082B08D0FEF775FF801B41F28833F6
:1012EC009842F2D9032038E01D4B1B6803F007032A
:1012FC00A3420CD91A4A136823F007032343136043
:10130C00136803F00703A34201D0012025E02B68EA
:10131C0013F0040F06D0134A536823F4E063E96812
:10132C000B4353602B6813F0080F07D00D4A53681A
:10133C0023F46053296943EAC1035360FFF724FF88
:10134C00084B5B68C3F30313074AD35CD840074BC5
:10135C0018600020FEF7F4FE002070BD0120FCE7B1
:10136C000020024000100240E82E00081801002066
:10137C00014B1868704700BF1801002070B582B08F
:10138C000446036813F0010F34D03E4BDB6913F0B5
:10139C00805F48D13B4BDA6942F08052DA61DB69FD
:1013AC0003F080530193019B0125374B1B6813F409
:1013BC00807F3AD0334B1B6A13F4407311D06268B0
:1013CC0002F440729A420CD02E4A136A23F44070F5
:1013DC002E4901260E6000260E60106213F0010FDC
:1013EC0037D1284A136A23F4407361680B431362A4
:1013FC00002D3FD1236813F0020F06D0214A536809
:10140C0023F44043A1680B435360236813F0100F7F
:10141C0035D01C4A536823F48003E1680B435360B6
:10142C00002002B070BD0025BFE7174A136843F4D3
:10143C0080731360FEF7C6FE0646134B1B6813F44D
:10144C00807FB7D1FEF7BEFE801B6428F5D9032040
:10145C00E7E7FEF7B7FE06460A4B1B6A13F0020FCE
:10146C00BFD1FEF7AFFE801B41F288339842F3D90F
:10147C000320D6E7D36923F08053D361BAE7002069
:10148C00CFE700BF00100240007000404004424211
:10149C0084B001A880E80E00002004B07047B0F8BA
:1014AC00403043F43F43A0F8403000207047B0F880
:1014BC00403023F474535B045B0CA0F840300020E4
:1014CC0070470020704784B038B505AC84E80E0036
:1014DC000123A0F840300024A0F84040A0F844407C
:1014EC00A0F85040FFF7DBFF2046BDE8384004B0C1
:1014FC00704710B4CB78032B0FD8DFE803F0026DE4
:10150C0054600A7830F822309BB223F4EC4323F079
:10151C00700343F4007320F822300A7830F822303C
:10152C0023F0F0031B051B0D134343F4004343F05E
:10153C00800320F822308B7A002B40F0AF804B7860
:10154C00002B56D08A885208B0F850300C7803EB38
:10155C00C40300EB43035200C3F800240A7830F8AC
:10156C00223013F0400F0BD030F8223023F0F00370
:10157C001B051B0D43F4004343F0C00320F822303D
:10158C000A7830F822309BB223F4E04323F0400376
:10159C0083F0200343F4004343F0800320F822300F
:1015AC00002010BC70470A7830F822309BB223F42C
:1015BC00EC4323F070039BB220F82230ADE70A789D
:1015CC0030F822309BB223F4EC4323F0700343F445
:1015DC00C06320F82230A0E70A7830F822309BB2A2
:1015EC0023F4EC4323F0700343F4806320F822309F
:1015FC0093E78A885208B0F850300C7803EBC40398
:10160C00043300EB43035200C3F80024B0F850300D
:10161C000A7803EBC203063300EB43030C693E2C40
:10162C0030D9C4F34F1214F01F0F01D1013A92B20A
:10163C006FEAC2626FEA524292B2C3F800240A788F
:10164C0030F8223013F4804F0BD030F8223023F0D6
:10165C00F0031B051B0D43F4404343F0800320F8BB
:10166C0022300A7830F822309BB223F4804323F0E6
:10167C00700383F4405343F4004343F0800320F899
:10168C0022308DE7C4F34F0214F0010F01D0013268
:10169C0092B2920292B2C3F80024D0E70A7830F8E2
:1016AC00223023F4F8731B051B0D43F4014343F064
:1016BC00800320F82230CA885208B0F850300C78D9
:1016CC0003EBC40300EB43035200C3F800240A8964
:1016DC005208B0F850300C7803EBC403043300EB21
:1016EC0043035200C3F800244B78002B4BD10A78EB
:1016FC0030F8223013F4804F0BD030F8223023F026
:10170C00F0031B051B0D43F4404343F0800320F80A
:10171C0022300A7830F8223013F0400F0BD030F81A
:10172C00223023F0F0031B051B0D43F4004343F060
:10173C00C00320F822300A7830F8223023F0F0036E
:10174C001B051B0D43F4004343F0C00320F822306B
:10175C000A7830F822309BB223F4804323F07003D4
:10176C0083F4405348F28004234320F822300A7853
:10177C0030F822309BB223F4E04323F040032343A0
:10178C0020F822300CE70A7830F8223013F4804F1E
:10179C000BD030F8223023F0F0031B051B0D43F463
:1017AC00404343F0800320F822300A7830F822308E
:1017BC0013F0400F0BD030F8223023F0F0031B0550
:1017CC001B0D43F4004343F0C00320F822300A7889
:1017DC0030F8223023F0F0031B051B0D43F440437B
:1017EC0043F0800320F822300B7830F8232092B29B
:1017FC0022F4E04222F0400248F28004224320F816
:10180C0023200A7830F822309BB223F4804323F053
:10181C007003234320F82230C2E68B7A002B44D18C
:10182C004B780BB30A7830F8223013F0400F0BD002
:10183C0030F8223023F0F0031B051B0D43F400435A
:10184C0043F0C00320F822300A7830F822309BB2E3
:10185C0023F4E04323F0400343F4004343F08003BC
:10186C0020F82230002070470A7830F8223013F428
:10187C00804F0BD030F8223023F0F0031B051B0DEA
:10188C0043F4404343F0800320F822300A7830F8C8
:10189C0022309BB223F4804323F0700343F40043C3
:1018AC0043F0800320F82230DCE710B44B78002B97
:1018BC004BD10A7830F8223013F4804F0BD030F82B
:1018CC00223023F0F0031B051B0D43F4404343F07F
:1018DC00800320F822300A7830F8223013F0400FC1
:1018EC000BD030F8223023F0F0031B051B0D43F412
:1018FC00004343F0C00320F822300A7830F822303D
:10190C0023F0F0031B051B0D43F4004343F0C0030D
:10191C0020F822300B7830F8232092B222F4804247
:10192C0022F0700248F28004224320F823200A7827
:10193C0030F822309BB223F4E04323F040032343DE
:10194C0020F82230002010BC70470A7830F8223082
:10195C0013F4804F0BD030F8223023F0F0031B052A
:10196C001B0D43F4404343F0800320F822300A78E7
:10197C0030F8223013F0400F0BD030F8223023F027
:10198C00F0031B051B0D43F4004343F0C00320F888
:10199C0022300A7830F8223023F0F0031B051B0D9F
:1019AC0043F4404343F0800320F822300B7830F8A6
:1019BC00232092B222F4E04222F0400248F280044A
:1019CC00224320F823200A7830F822309BB223F4EB
:1019DC00804323F07003234320F82230B2E70A78C7
:1019EC008AB14B7813BB30F822309BB223F480437E
:1019FC0023F0700383F4805343F4004343F08003DB
:101A0C0020F8223010E030F822309BB223F48043CF
:101A1C0023F0400383F4805383F0100343F400431A
:101A2C0043F0800320F822300020704730F8223039
:101A3C009BB223F4E04323F0400383F0100343F400
:101A4C00004343F0800320F82230EDE74B781BB3C2
:101A5C000A7830F8223013F0400F0BD030F82230D7
:101A6C0023F0F0031B051B0D43F4004343F0C003AC
:101A7C0020F822300A7830F822309BB223F4E0436D
:101A8C0023F0400383F0300343F4004343F080031E
:101A9C0020F82230002070470A7830F8223013F4F6
:101AAC00804F0BD030F8223023F0F0031B051B0DB8
:101ABC0043F4404343F0800320F822300A7830F896
:101ACC0022309BB223F4804323F0700383F4405301
:101ADC0043F4004343F0800320F82230DAE711B9D5
:101AEC008023A0F84C300020704700207047002065
:101AFC007047B0F8440070470020704701335B100A
:101B0C0000EB420202F5806263B110B40C784878A5
:101B1C0044EA002422F8044B0231013B002BF5D19E
:101B2C0010BC70477047F8B58A694D78012D34D0D8
:101B3C000B69934280F0EA80D21A8A618A7A002A71
:101B4C0040F0F480B0F850200C7802EBC40206325E
:101B5C0000EB42023E2B40F2DD80C3F34F1413F036
:101B6C001F0F01D1013CA4B26FEAC4646FEA544464
:101B7C00A4B2C2F800440A7830F822309BB223F4A5
:101B8C00804323F0700383F4405343F4004343F049
:101B9C00800320F822300020F8BD0F69974225D22F
:101BAC00D21B8A610E4604468B7A1BB30B7830F835
:101BBC00232012F0400F69D0002D37D1B0F85020FF
:101BCC0002EBC303063300EB43033E2F22D9C7F3CA
:101BDC004F1217F01F0F01D1013A92B26FEAC26295
:101BEC006FEA524292B2C3F8002428E000238B61C2
:101BFC001746D7E7BBB28A884969FFF77FFFB4F86D
:101C0C005030327803EBC203023304EB4303C3F8C6
:101C1C0000742AE0C7F34F0217F0010F01D0013214
:101C2C0092B2920292B2C3F8002408E0B0F85020AD
:101C3C0002EBC303023300EB4303C3F80074328995
:101C4C00BBB271692046FFF759FF7378002B4DD159
:101C5C00327834F8223023F0F0031B051B0D43F4CB
:101C6C00004343F0C00324F82230327834F8223099
:101C7C009BB223F4E04323F0400383F0300343F49E
:101C8C00004343F0800324F8223084E71DBBB0F8F6
:101C9C00502002EBC303023300EB43033E2F0ED95B
:101CAC00C7F34F1217F01F0F01D1013A92B26FEA2E
:101CBC00C2626FEA524292B2C3F8002414E0C7F336
:101CCC004F0217F0010F01D0013292B2920292B280
:101CDC00C3F8002408E0B0F8502002EBC303023331
:101CEC0000EB4303C3F80074F288A9E7012BBCD1C5
:101CFC00327834F8223023F0F0031B051B0D43F42B
:101D0C00404343F0800324F82230AEE700238B617C
:101D1C00134613E7C3F34F0413F0010F01D0013442
:101D2C00A4B2A402A4B2C2F8004424E7BDB9B0F82E
:101D3C0050200C7802EBC402023200EB42023E2B24
:101D4C0028D9C3F34F1413F01F0F01D1013CA4B2D7
:101D5C006FEAC4646FEA5444A4B2C2F800444A78EF
:101D6C0082BBB0F850200C7802EBC402063200EBB8
:101D7C0042023E2B1AD9C3F34F1413F01F0F01D19B
:101D8C00013CA4B26FEAC4646FEA5444A4B2C2F832
:101D9C000044F0E6C3F34F0413F0010F01D00134FB
:101DAC00A4B2A402A4B2C2F80044D8E7C3F34F040F
:101DBC0013F0010F01D00134A4B2A402A4B2C2F8F2
:101DCC000044D8E6012A7FF4D6AEB0F850200C7847
:101DDC0002EBC402023200EB4202C2F80034CAE643
:101DEC0001335B1000EB420202F5806204E01068E4
:101DFC0021F8020B013B0432002BF8D17047D0F8CC
:101E0C0018321BB10020C3F814027047022070472F
:101E1C0010B5D0F81842D0F81C325BB194F800021F
:101E2C00FF2807D09B6894F8012221469847FF238E
:101E3C0084F80032002010BD432303800048704713
:101E4C000800002043230380004870474C0000200A
:101E5C004323038000487047900000200A2303802E
:101E6C0000487047D400002038B50446D0F818520A
:101E7C0000F066FFC5F80C02D4F818324BB1D4F858
:101E8C001C32DB6805F50371D5F804029847002075
:101E9C0038BD0220FCE7000070B505460C46D0F8B2
:101EAC0018620B7813F0600225D0202A07D1CA885B
:101EBC003AB9D0F81C329B68002248789847002029
:101ECC0070BD13F0800F0BD0D0F81C329B683146DC
:101EDC0060789847E2883146284600F059FCEEE7D6
:101EEC004B7886F80032CB8886F80132CA883146A6
:101EFC0000F063FCE3E74B780A2BE0D101220249A6
:101F0C0000F046FCDBE700BF7C01002010B5044666
:101F1C00812100F0AEFE0121204600F0AAFE8221B4
:101F2C00204600F0A6FED4F8183253B1D4F81C3277
:101F3C005B689847D4F8180200F00CFF0023C4F833
:101F4C001832002010BD38B50446037C73BB4FF427
:101F5C0000730222812100F07BFE4FF400730222F9
:101F6C000121204600F074FE082303228221204622
:101F7C0000F06EFE4FF4077000F0E8FE0546C4F862
:101F8C00180248B3D4F81C321B6898470023C5F8D4
:101F9C001432C5F81832237CA3B14023D5F804229F
:101FAC000121204600F0BEFE002038BD4023022255
:101FBC00812100F04DFE402302220121204600F039
:101FCC0047FED1E74FF40073D5F8042201212046D7
:101FDC0000F0A8FE0020E8E70120E6E719B1C0F800
:101FEC001C120020704702207047D0F81832C3F83A
:101FFC000812C3F8102200207047D0F81832C3F82A
:10200C00041200207047D0F818229AB108B5037C4E
:10201C003BB14023D2F80422012100F083FE0020C2
:10202C0008BD4FF40073D2F80422012100F07AFEAF
:10203C000020F5E70220704798B108B50346D0F8A8
:10204C00140210B10020C3F8140209B1C3F8101225
:10205C001846012380F8FC31027000F0A1FD00202D
:10206C0008BD0220704719B1C0F814120020704747
:10207C000220704708B500F0DDFD002008BD08B552
:10208C00D0F8143233B11B68984708B9002008BD4A
:10209C000220FCE70220FAE708B5D0F814325B689E
:1020AC009847002008BD38B5044600F5027528464F
:1020BC0000F00CF90123C4F8F431B4F80E32C4F872
:1020CC00F83194F8081201F01F03012B0ED03BB12C
:1020DC00022B10D001F08001204600F0D8FD03E067
:1020EC002946204600F06BFA002038BD29462046D0
:1020FC0000F089FAF8E72946204600F0A0FAF3E749
:10210C0010B5044621BB1346D0F8F421032A01D0A4
:10211C00002010BDD0F80C11D0F8102191420CD831
:10212C00D0F814321B6923B190F8FC21032A00D19A
:10213C009847204600F058FBEAE7891AC0F80C11C2
:10214C008A4228BF0A4692B2194600F045FBDFE7E7
:10215C000A46D0F814329B69002BD9D090F8FC11A8
:10216C000329D5D111469847D2E710B5044600296A
:10217C0046D11346D0F8F421022A05D094F8003247
:10218C00012B39D0002010BDC169026A914219D8C7
:10219C008169B1FBF2F302FB13132BB98A4203D80A
:1021AC00D0F8F83199421AD3D4F81432DB682BB139
:1021BC0094F8FC21032A01D120469847204600F0D0
:1021CC001EFBDBE78A1AC26192B2194600F0EDFAE7
:1021DC0000231A461946204600F0A4FDCEE7002243
:1021EC00114600F0E2FA0021C4F8F8110B460A4639
:1021FC00204600F097FDC1E7002384F80032C1E7C8
:10220C000A46D0F814325B69002BBBD090F8FC1155
:10221C000329B7D111469847B4E738B50446402393
:10222C000022114600F014FD4025C4F810512B4635
:10223C0000228021204600F00BFD2562012384F84A
:10224C00FC31D4F818322BB1D4F814325B682179F4
:10225C0020469847002038BD01740020704790F844
:10226C00FC3180F8FD31042380F8FC3100207047EC
:10227C0090F8FD3180F8FC310020704708B590F8DB
:10228C00FC31032B01D0002008BDD0F81432DB69DF
:10229C00002BF8D09847F6E7002302E00133DBB2BD
:1022AC0001300278002AF9D1184670474B88012B6F
:1022BC000BD110B50446C0F80432D0F814329B6828
:1022CC009847204600F090FA10BD70470B780370C9
:1022DC004B7843708B78CA7803EB022343800B79DD
:1022EC004A7903EB022383808B79CA7903EB0223AF
:1022FC00C380704710B50446802100F0C8FC002153
:10230C00204600F0C4FC10BD30B583B004460D4629
:10231C004A88130A013B062B00F28180DFE803F0A8
:10232C000413277F7F637000D0F810321B680DF107
:10233C000601007C9847BDF8062012B1EB88002BF3
:10234C0071D103B030BD037C43B9D0F814329B6A11
:10235C000DF10600984702234370ECE7D0F81432D5
:10236C00DB6A0DF10600984702234370E3E7D2B213
:10237C00052A34D8DFE802F0030B131B232BD0F80B
:10238C0010325B680DF10601007C9847D3E7D0F85A
:10239C0010329B680DF10601007C9847CBE7D0F812
:1023AC001032DB680DF10601007C9847C3E7D0F8CA
:1023BC0010321B690DF10601007C9847BBE7D0F881
:1023CC0010325B690DF10601007C9847B3E7D0F839
:1023DC0010329B690DF10601007C9847ABE729464A
:1023EC00FFF788FFADE7037C33B9D0F814325B6B91
:1023FC000DF1060098479EE72946FFF77BFFA0E703
:10240C00037C43B9D0F814321B6B0DF106009847CE
:10241C00072343708FE72946FFF76CFF91E72946A6
:10242C00FFF768FF8DE79A4228BF1A46ADF80620E1
:10243C000146204600F0ACF983E738B504468B889A
:10244C00E3B9CB88D3B98D7805F07F0590F8FC31D2
:10245C00032B0CD080F8FE51294600F047FC204697
:10246C0000F0C2F935B1022384F8FC3109E0FFF722
:10247C0041FF06E0012384F8FC3102E02046FFF71F
:10248C0039FF38BD38B504460D468978254B19708F
:10249C00012909D890F8FC31022B09D0032B1CD050
:1024AC002946FFF727FF02E02946FFF723FF38BD37
:1024BC0081B14160032380F8FC31FFF7E0FD022875
:1024CC0003D0204600F090F9F1E729462046FFF7AB
:1024DC0011FFECE700F088F9E9E789B1436899420C
:1024EC001DD0D9B2FFF7D8FD0E4B1978616020468C
:1024FC00FFF7C5FD02280DD0204600F075F9D6E790
:10250C00022380F8FC314160FFF7C6FD204600F045
:10251C006BF9CCE729462046FFF7ECFEC7E700F045
:10252C0063F9C4E77D01002008B5CB88012B08D1E5
:10253C0090F8FC31022B07D0032B0DD0FFF7DAFEFD
:10254C0001E0FFF7D7FE08BD0146002341F8083F24
:10255C00012200F01DF9F6E70122011D00F018F927
:10256C00F1E708B590F8FC31023B012B0CD80123A4
:10257C00C360D0F804320BB10323C360022200F114
:10258C000C0100F005F908BDFFF7B4FEFBE710B530
:10259C00044690F8FC31023B012B0DD84B88012BE3
:1025AC0009D10023C0F80432D0F814329B68984744
:1025BC00204600F019F910BDFFF79CFEFBE708B5AB
:1025CC004B78092B1CD8DFE803F012181B151B09DC
:1025DC00051B0F0CFFF798FE002008BDFFF72DFF21
:1025EC00FAE7FFF74FFFF7E7FFF79EFFF4E7FFF778
:1025FC00B8FFF1E7FFF75AFEEEE7FFF7C8FFEBE78E
:10260C00FFF778FEE8E738B504460D4690F8FC3144
:10261C00032B11D10B79012B0BD8D0F814329B68FA
:10262C009847EB880BB1002038BD204600F0DCF851
:10263C00F9E7FFF75FFEF6E7FFF75CFEF3E738B567
:10264C0005460C468A880B7803F06003202B05D1D5
:10265C00D0F814329B689847002038BDD1B263780B
:10266C00012B25D0002B47D0032BF5D190F8FC3152
:10267C00022B05D0032B0AD02146FFF73BFEEBE7DC
:10268C000029E9D08029E7D000F001FBE4E763885A
:10269C0023B919B1802901D000F0F9FAD5F8143218
:1026AC009B68214628469847284600F09DF8D3E7BA
:1026BC0090F8FC31022B05D0032B0AD02146FFF7F2
:1026CC0019FEC9E70029C7D08029C5D000F0DFFA70
:1026DC00C2E76388002BBFD111F07F0F03D12846CE
:1026EC0000F082F8B8E700F0E0FAD5F814329B68F5
:1026FC00214628469847F2E790F8FC31022B05D08A
:10270C00032B09D02146FFF7F5FDA5E711F07F0F4C
:10271C00A2D000F0BCFA9FE712F0800F11D101F0AB
:10272C007F04103400EB04140434284600F0CBFA78
:10273C0070B10123236002222146284600F028F8BC
:10274C008AE701F07F04013400EB04140434ECE755
:10275C0000232360EFE7D0B170B50D461646044652
:10276C00FFF79AFD0130400080B2308028700323BF
:10277C006B70022307E001345A1CD2B2E9540233C5
:10278C00DBB20021A95421780029F4D170BD704727
:10279C0010B513460222C0F8F4218361C3610A46C6
:1027AC00002100F0B1FA002010BD08B513460A460E
:1027BC00002100F0A9FA002008BD10B51346032231
:1027CC00C0F8F421C0F80831C0F80C310A460021D9
:1027DC0000F0A8FA002010BD08B513460A460021E7
:1027EC0000F0A0FA002008BD08B50423C0F8F431AD
:1027FC0000231A46194600F087FA002008BD08B5D8
:10280C000523C0F8F43100231A46194600F08AFA61
:10281C00002008BD10B588B0184B9A6942F0100220
:10282C009A619A6902F010020192019A9A6942F037
:10283C0020029A619A6902F020020292029A9A6925
:10284C0042F004029A619B6903F004030393039B17
:10285C000B4C01224FF400512046FDF721FE4FF4A2
:10286C00005304930123059300230693022307933B
:10287C0004A92046FDF72AFD08B010BD0010024047
:10288C0000100140FEE7000000B595B001220A924D
:10289C004FF480330B9300210C910E920222119273
:1028AC0012934FF4801313930AA8FEF77FFA58BBC8
:1028BC000F23059302230693002307934FF48062A2
:1028CC0008920993012105A8FEF796FC00BB102382
:1028DC0001934FF48003049301A8FEF74FFDD8B980
:1028EC00FEF746FD0E4BA3FB00308009FDF7C2FC42
:1028FC000420FDF7D5FC002211464FF0FF30FDF708
:10290C0079FC15B05DF804FB94210648FFF7BAFF7B
:10291C00A2210448FFF7B6FFA9210248FFF7B2FF36
:10292C00D34D6210002F000808B5FDF72DFCFFF702
:10293C00ABFFFFF76FFF00F08DF8FEE700B583B03B
:10294C00244B9A6942F001029A619A6902F00102E1
:10295C000092009ADA6942F08052DA61DB6903F086
:10296C0080530193019B0320FDF732FC002211469A
:10297C006FF00B00FDF73EFC002211466FF00A00D1
:10298C00FDF738FC002211466FF00900FDF732FC10
:10299C00002211466FF00400FDF72CFC00221146BA
:1029AC006FF00300FDF726FC002211466FF00100CA
:1029BC00FDF720FC002211464FF0FF30FDF71AFC0A
:1029CC00054A536823F0E06343F00073536003B08F
:1029DC005DF804FB00100240000001407047FEE768
:1029EC00FEE7FEE7FEE770477047704708B5FDF756
:1029FC00DDFBFDF766FC08BD08B50248FEF7A2F842
:102A0C0008BD00BF980D00200F4B1A6842F0010260
:102A1C001A6059680D4A0A405A601A6822F084728A
:102A2C0022F480321A601A6822F480221A605A68E2
:102A3C0022F4FE025A604FF41F029A60044B4FF0CE
:102A4C0000629A60704700BF001002400000FFF85F
:102A5C0000ED00E010B5094C002209492046FFF7B3
:102A6C00EBFA08492046FFF7FEFA07492046FFF724
:102A7C00B5FA2046FFF7FEFA10BD00BFA4030020F4
:102A8C0044010020E00000201C01002000207047C1
:102A9C000020704710B5054C01462046FFF7ADFAF3
:102AAC002046FFF7B0FA002010BD00BFA4030020A1
:102ABC0010B5064C002206492046FFF796FA054948
:102ACC002046FFF79AFA002010BD00BFA403002097
:102ADC00B0090020C805002002680E4B9A4200D0B5
:102AEC00704700B583B003F5DA33DA6942F40002BB
:102AFC00DA61DB6903F400030193019B00221146A8
:102B0C001420FDF777FB1420FDF7A8FB03B05DF84C
:102B1C0004FB00BF005C004008B500F22C41D0F86B
:102B2C005C04FFF7C0FA08BD08B500EB4113D3F8FD
:102B3C003C22D0F85C04FFF7E3FA08BD08B500EBC3
:102B4C004113DA6BD0F85C04FFF70FFB08BD08B536
:102B5C00D0F85C04FFF792FB08BD10B504460121C8
:102B6C00D0F85C04FFF778FBD4F85C04FFF755FB56
:102B7C0010BD000010B50446D0F85C04FFF76FFBE5
:102B8C00A36923B1024A136943F00603136110BD14
:102B9C0000ED00E008B5D0F85C04FFF769FB08BD58
:102BAC0010B504462048C0F85C44C4F820021F4B02
:102BBC00036008234360022383600323C360002364
:102BCC008361C3610362FDF771FC30BB18230022E3
:102BDC001146D4F82002FEF7BAF8582300228021BF
:102BEC00D4F82002FEF7B3F8C02300228121D4F8D8
:102BFC002002FEF7ACF84FF4887300220121D4F8C0
:102C0C002002FEF7A4F84FF4807300228221D4F83E
:102C1C002002FEF79CF8002010BD4FF49771044879
:102C2C00FFF730FED2E700BF980D0020005C00409B
:102C3C00102F000808B5D0F82002FDF7A2FC18B13F
:102C4C00022803D0022008BD0020FCE70120FAE78F
:102C5C0010B51C4613462246D0F82002FDF7BCFCEA
:102C6C0018B1022803D0022010BD0020FCE701207F
:102C7C00FAE708B5D0F82002FDF7D7FC18B1022806
:102C8C0003D0022008BD0020FCE70120FAE708B5BC
:102C9C00D0F82002FEF706F818B1022803D0022063
:102CAC0008BD0020FCE70120FAE708B5D0F82002A7
:102CBC00FEF726F818B1022803D0022008BD002028
:102CCC00FCE70120FAE7D0F8203211F0800F06D192
:102CDC0001F07F0103EB411191F82A02704701F0DA
:102CEC007F0103EB411191F82A00704708B5D0F829
:102CFC002002FDF75DFC18B1022803D0022008BDAC
:102D0C000020FCE70120FAE708B5D0F82002FDF717
:102D1C00D9FC18B1022803D0022008BD0020FCE722
:102D2C000120FAE708B5D0F82002FDF7A5FC18B190
:102D3C00022803D0022008BD0020FCE70120FAE79E
:102D4C0008B5D0F82002FDF7B6FC08BD0048704766
:102D5C00800100207047704712230B800048704799
:102D6C002C01002004230B800048704740010020F8
:102D7C0008B50A4628B105490548FFF7ECFC03489D
:102D8C0008BD02490248FFF7E6FCF8E7F8110020FD
:102D9C00242F000810B5044C0A4621460348FFF7BF
:102DAC00DAFC204610BD00BFF81100203C2F0008B3
:102DBC0008B50A4628B105490548FFF7CCFC03487D
:102DCC0008BD02490248FFF7C6FCF8E7F8110020DD
:102DDC00502F000808B50A4628B105490548FFF7E9
:102DEC00BAFC034808BD02490248FFF7B4FCF8E7F7
:102DFC00F8110020602F000808B50A4628B10549D3
:102E0C000548FFF7A8FC034808BD02490248FFF734
:102E1C00A2FCF8E7F81100206C2F0008002103E059
:102E2C000B4B5B58435004310A480B4B42189A42E7
:102E3C00F6D30A4A02E0002342F8043B084B9A42BC
:102E4C00F9D3FFF7E1FD00F00FF8FFF76DFD7047C8
:102E5C00842F000800000020600100206001002089
:102E6C00F8130020FEE7000070B500250C4E0D4C49
:102E7C00A41BA410A54209D100F01AF800250A4E93
:102E8C000A4CA41BA410A54205D170BD56F82530E0
:102E9C0098470135EEE756F8253098470135F2E7AB
:102EAC007C2F00087C2F00087C2F0008802F000846
:102EBC00F8B500BFF8BC08BC9E467047F8B500BF1B
:082ECC00F8BC08BC9E467047EB
:102ED40002030405060708090A0B0C0D0E0F101057
:102EE40001020000000000000000000001020304D1
:102EF4000607080900000000010203042E2E2F53C8
:102F040072632F6D61696E2E630000002E2E2F53A5
:102F140072632F757362645F636F6E662E63000065
:102F240053544D3332205669727475616C20436F6B
:102F34006D506F727400000053544D6963726F6575
:102F44006C656374726F6E69637300003030303087
:102F540030303030303031410000000043444320F1
:102F6400436F6E666967000043444320496E74658D
:082F7400726661636500000054
:042F7C003101000817
:042F80000D01000837
:102F8400010000001000000009024300020100C01B
:102F940032090400000102020100052400100105A9
:102FA400240100010424020205240600010705820D
:102FB4000308001009040100020A000000070501CB
:102FC400024000000705810240000000090243009E
:102FD400020100C0320904000001020201000524BC
:102FE4000010010524010001042402020524060046
:102FF400010705820308001009040100020A000009
:10300400000705010200020007058102000200001A
:1030140009074300020104C032090400000102024E
:10302400010005240010010524010001042402020A
:103034000524060001070582030800FF09040100B6
:10304400020A000000070501024000000705810292
:10305400400000000A0600020000004001000000D9
:10306400531F0008191F0008A51E000800000000D7
:103074001D1E00080B1E0008751E0008000000003D
:103084000000000000000000511E0008451E00085A
:103094005D1E0008691E000800A24A04BD2A00083B
:1030A400992A00089D2A0008A12A0008120100029A
:1030B40002020040830440570002010203010000A1
:1030C40004030904652D0008712D0008A12D0008D2
:1030D4007D2D0008BD2D0008E12D0008052E0008F7
:0400000508002E2998
:00000001FF
